:020000040800F2
:100000000000022039DE000801B5000809B500082B
:1000100011B5000819B5000821B50008000000005E
:10002000000000000000000000000000A59700088C
:1000300029B50008000000006197000891960008AB
:1000400089DE000889DE000889DE000889DE0008F4
:1000500089DE000889DE000889DE000889DE0008E4
:1000600089DE000889DE000889DE0008518F00085B
:1000700089DE000889DE000889DE000889DE0008C4
:1000800089DE000889DE000889DE000889DE0008B4
:1000900089DE000889DE000889DE000889DE0008A4
:1000A00089DE000839B5000889DE000889DE00080D
:1000B00089DE000889DE000889DE000889DE000884
:1000C00089DE000889DE000889DE000889DE000874
:1000D00089DE000889DE000889DE000889DE000864
:1000E0004DB5000889DE000889DE000889DE0008B9
:1000F00089DE000889DE000889DE000889DE000844
:1001000089DE000889DE000889DE000889DE000833
:1001100089DE000889DE000889DE000889DE000823
:1001200089DE000889DE000889DE000889DE000813
:1001300089DE000889DE000889DE000889DE000803
:1001400089DE000889DE000889DE000889DE0008F3
:1001500089DE000889DE000889DE000889DE0008E3
:1001600089DE000889DE000889DE000889DE0008D3
:1001700089DE000889DE000889DE000889DE0008C3
:1001800089DE000889DE000889DE000889DE0008B3
:1001900089DE00080000000089DE000889DE000812
:1001A00089DE000889DE000889DE00083D8F00082E
:1001B00089DE000889DE000889DE000889DE000883
:1001C00089DE000889DE000889DE000889DE000873
:0801D00089DE000889DE000849
:1001D80081F0004102E000BF83F0004330B54FEAF0
:1001E80041044FEA430594EA050F08BF90EA020F5D
:1001F8001FBF54EA000C55EA020C7FEA645C7FEAF0
:10020800655C00F0E2804FEA5454D4EB5555B8BF12
:100218006D420CDD2C4480EA020281EA030382EA83
:10022800000083EA010180EA020281EA0303362D15
:1002380088BF30BD11F0004F4FEA01314FF4801CE8
:100248004CEA113102D0404261EB410113F0004FFA
:100258004FEA03334CEA133302D0524263EB4303B1
:1002680094EA050F00F0A780A4F10104D5F1200E4F
:100278000DDB02FA0EFC22FA05F2801841F10001AA
:1002880003FA0EF2801843FA05F359410EE0A5F17E
:1002980020050EF1200E012A03FA0EFC28BF4CF0AF
:1002A800020C43FA05F3C01851EBE37101F0004565
:1002B80007D54FF0000EDCF1000C7EEB00006EEB72
:1002C8000101B1F5801F1BD3B1F5001F0CD34908FC
:1002D8005FEA30004FEA3C0C04F101044FEA445253
:1002E80012F5800F80F09A80BCF1004F08BF5FEADA
:1002F800500C50F1000041EB045141EA050130BDBA
:100308005FEA4C0C404141EB0101013C28BFB1F5CB
:10031800801FE9D291F0000F04BF01460020B1FA16
:1003280081F308BF2033A3F10B03B3F120020CDAE9
:100338000C3208DD02F1140CC2F10C0201FA0CF0C7
:1003480021FA02F10CE002F11402D8BFC2F1200C2C
:1003580001FA02F120FA0CFCDCBF41EA0C019040E2
:10036800E41AA2BF01EB0451294330BD6FEA04042B
:100378001F3C1CDA0C340EDC04F11404C4F1200216
:1003880020FA04F001FA02F340EA030021FA04F328
:1003980045EA030130BDC4F10C04C4F1200220FA7F
:1003A80002F001FA04F340EA0300294630BD21FABD
:1003B80004F0294630BD94F0000F83F4801306BF83
:1003C80081F480110134013D4EE77FEA645C18BF77
:1003D8007FEA655C29D094EA050F08BF90EA020F0E
:1003E80005D054EA000C04BF1946104630BD91EA06
:1003F800030F1EBF0021002030BD5FEA545C05D109
:100408004000494128BF41F0004130BD14F5800447
:100418003CBF01F5801130BD01F0004545F0FE41BB
:1004280041F470014FF0000030BD7FEA645C1ABFF0
:10043800194610467FEA655C1CBF0B46024650EA27
:10044800013406BF52EA033591EA030F41F4002153
:1004580030BD00BF90F0000F04BF0021704730B5D9
:100468004FF4806404F132044FF000054FF00001AE
:1004780050E700BF90F0000F04BF0021704730B56F
:100488004FF4806404F1320410F0004548BF404244
:100498004FF000013EE700BF42004FEAE2014FEA99
:1004A80031014FEA02701FBF12F07F4393F07F4F74
:1004B80081F06051704732F07F4208BF704793F077
:1004C8007F4F04BF41F40021704730B54FF460748A
:1004D80001F0004521F000411CE700BF50EA01028D
:1004E80008BF704730B54FF000050AE050EA010236
:1004F80008BF704730B511F0004502D5404261EBA6
:1005080041014FF4806404F132045FEA915C3FF4E6
:10051800D8AE4FF003025FEADC0C18BF03325FEA83
:10052800DC0C18BF033202EBDC02C2F1200300FA34
:1005380003FC20FA02F001FA03FE40EA0E0021FA59
:1005480002F11444BDE600BF70B54FF0FF0C4CF447
:10055800E06C1CEA11541DBF1CEA135594EA0C0FF9
:1005680095EA0C0F00F0DEF82C4481EA030621EA34
:100578004C5123EA4C5350EA013518BF52EA03356F
:1005880041F4801143F4801338D0A0FB02CE4FF021
:100598000005E1FB02E506F00042E0FB03E54FF051
:1005A8000006E1FB03569CF0000F18BF4EF0010E49
:1005B800A4F1FF04B6F5007F64F5407404D25FEA45
:1005C8004E0E6D4146EB060642EAC62141EA5551F8
:1005D8004FEAC52040EA5E504FEACE2EB4F1FD0C3A
:1005E80088BFBCF5E06F1ED8BEF1004F08BF5FEAB8
:1005F800500E50F1000041EB045170BD06F000466A
:1006080046EA010140EA020081EA0301B4EB5C0416
:10061800C2BFD4EB0C0541EA045170BD41F480110E
:100628004FF0000E013C00F3AB8014F1360FDEBF33
:10063800002001F0004170BDC4F10004203C35DA0F
:100648000C341BDC04F11404C4F1200500FA05F392
:1006580020FA04F001FA05F240EA020001F0004233
:1006680021F0004110EBD37021FA04F642EB0601A9
:100678005EEA430E08BF20EAD37070BDC4F10C04D3
:10068800C4F1200500FA04F320FA05F001FA04F297
:1006980040EA020001F0004110EBD37041F1000183
:1006A8005EEA430E08BF20EAD37070BDC4F120058E
:1006B80000FA05F24EEA020E20FA04F301FA05F2F6
:1006C80043EA020321FA04F001F0004121FA04F29E
:1006D80020EA020000EBD3705EEA430E08BF20EA6E
:1006E800D37070BD94F0000F0FD101F000464000A8
:1006F80041EB010111F4801F08BF013CF7D041EA2A
:10070800060195F0000F18BF704703F0004652002D
:1007180043EB030313F4801F08BF013DF7D043EAFE
:100728000603704794EA0C0F0CEA135518BF95EAB4
:100738000C0F0CD050EA410618BF52EA4306D1D13B
:1007480081EA030101F000414FF0000070BD50EA5A
:10075800410606BF1046194652EA430619D094EAE4
:100768000C0F02D150EA013613D195EA0C0F05D1CE
:1007780052EA03361CBF104619460AD181EA030122
:1007880001F0004141F0FE4141F470014FF00000DA
:1007980070BD41F0FE4141F4780170BD70B54FF075
:1007A800FF0C4CF4E06C1CEA11541DBF1CEA1355F5
:1007B80094EA0C0F95EA0C0F00F0A7F8A4EB0504D7
:1007C80081EA030E52EA03354FEA013100F08880CE
:1007D8004FEA03334FF0805545EA131343EA126397
:1007E8004FEA022245EA111545EA10654FEA00264C
:1007F8000EF000419D4208BF964244F1FD0404F505
:10080800407402D25B084FEA3202B61A65EB030560
:100818005B084FEA32024FF480104FF4002CB6EB1D
:10082800020E75EB030E22BFB61A754640EA0C009D
:100838005B084FEA3202B6EB020E75EB030E22BFDD
:10084800B61A754640EA5C005B084FEA3202B6EB1E
:10085800020E75EB030E22BFB61A754640EA9C00DD
:100868005B084FEA3202B6EB020E75EB030E22BFAD
:10087800B61A754640EADC0055EA060E18D04FEA6B
:10088800051545EA16754FEA06164FEAC30343EA0B
:1008980052734FEAC2025FEA1C1CC0D111F4801FD8
:1008A8000BD141EA00014FF000004FF0004CB6E7D1
:1008B80011F4801F04BF01430020B4F1FD0C88BF70
:1008C800BCF5E06F3FF6AFAEB5EB030C04BFB6EB7B
:1008D800020C5FEA500C50F1000041EB045170BD6E
:1008E8000EF0004E4EEA113114EB5C04C2BFD4EB9B
:1008F8000C0541EA045170BD41F480114FF0000E1F
:10090800013C90E645EA060E8DE60CEA135594EA9A
:100918000C0F08BF95EA0C0F3FF43BAF94EA0C0F9D
:100928000AD150EA01347FF434AF95EA0C0F7FF412
:1009380025AF104619462CE795EA0C0F06D152EA66
:1009480003353FF4FDAE1046194622E750EA41064A
:1009580018BF52EA43067FF4C5AE50EA41047FF45B
:100968000DAF52EA43057FF4EBAE12E74FF0FF3CC0
:1009780006E000BF4FF0010C02E000BF4FF0010C91
:100988004DF804CD4FEA410C7FEA6C5C4FEA430C0A
:1009980018BF7FEA6C5C1BD001B050EA410C0CBF59
:1009A80052EA430C91EA030F02BF90EA020F0020BB
:1009B800704710F1000F91EA030F58BF994208BF22
:1009C80090422CBFD8176FEAE37040F001007047DF
:1009D8004FEA410C7FEA6C5C02D150EA013C07D136
:1009E8004FEA430C7FEA6C5CD6D152EA033CD3D081
:1009F8005DF8040B704700BF8446104662468C467B
:100A08001946634600E000BF01B5FFF7B7FF0028AD
:100A180048BF10F1000F01BD4DF808EDFFF7F4FFD6
:100A28000CBF012000205DF808FB00BF4DF808ED61
:100A3800FFF7EAFF34BF012000205DF808FB00BF84
:100A48004DF808EDFFF7E0FF94BF012000205DF8A6
:100A580008FB00BF4DF808EDFFF7CEFF94BF01205B
:100A680000205DF808FB00BF4DF808EDFFF7C4FF54
:100A780034BF012000205DF808FB00BF4FEA4102A7
:100A8800B2F1E04324BFB3F5001CDCF1FE5C0DD9E4
:100A980001F0004C4FEAC0024CEA5070B2F1004F2E
:100AA80040EB830008BF20F00100704711F0804F31
:100AB80021D113F13872BCBF01F00040704741F4F6
:100AC80080114FEA5252C2F11802C2F1200C10FAFA
:100AD8000CF320FA02F018BF40F001004FEAC123DE
:100AE8004FEAD32303FA0CFC40EA0C0023FA02F382
:100AF8004FEA4303CCE77FEA625307D150EA013358
:100B08001EBF4FF0FE4040F44000704701F0004027
:100B180040F0FE4040F40000704700BF53B94AB9A6
:100B2800002908BF00281CBF4FF0FF314FF0FF30ED
:100B380000F00CB8ADF1080C6DE904CE0DF0A2F987
:100B4800DDF804E0DDE9022304B07047704700BF18
:100B58000348044B834202D0034B03B11847704744
:100B68009400002094000020000000000548064B77
:100B78001B1AD90F01EBA301491002D0034B03B193
:100B880018477047940000209400002000000000DF
:100B980010B5064C237843B9FFF7DAFF044B13B1BD
:100BA8000448AFF300800123237010BD9800002093
:100BB80000000000BCE1000808B5054B1BB1054961
:100BC8000548AFF30080BDE80840FFF7CFBF00BF7E
:100BD800000000009C000020BCE1000880B485B043
:100BE80000AF786039600023FB7397F90F3018461F
:100BF8001437BD465DF8047B7047000080B584B0AB
:100C080000AF786039600023FB727B68002B05D148
:100C18002F4801F007F94FF0FF3354E03B68002BF1
:100C280005D12C4801F0FEF84FF0FF334BE02A4B7A
:100C38001B6813F1020F04D13B681B68264A136036
:100C480003E0254B1A683B681A60234B1B68B3F115
:100C5800FF3F02D1214801F0E5F87B685B681B681B
:100C68001F4A13607B685B685B681E4A13607B6879
:100C78005B689B681C4A13607B685B68DB681B4A7F
:100C880013601B4B00221A6001F096FD0023FB60E5
:100C98000023FB6007E0174AFB68174942F8231056
:100CA800FB680133FB60FB68012BF4D901F0B8F94C
:100CB8000346FB7297F90B30002B02D10F4B012230
:100CC8001A7097F90B3018461037BD4680BD00BF23
:100CD800D4E10008F8E100080000002024E2000840
:100CE800EC010020F0010020F4010020F8010020B0
:100CF800FC010020B400002029280008EA01002097
:100D080080B586B000AF78600023FB7500233B6197
:100D18000023FB732A4B1B78DBB2002B0CBF01238B
:100D28000023DBB2BB73274B02221A707B68002BAF
:100D38000BD1234B1B78DBB2002B06D1224B1B783F
:100D4800DBB2002B01D1012300E00023FB7316E086
:100D58000A2007F099F93B6903F51C5310333B61EE
:100D68007B68B3F1FF3F05D03A697B689A4201D9A5
:100D7800012300E00023FB73002001F0ADF9104BC4
:100D88001B78DBB2002B07D10F4B1B78DBB2002B93
:100D980002D1FB7B002BDBD00A4B03221A70FB7BB2
:100DA800002B01D09C23FB75BB7B002B01D001F0ED
:100DB80031FE97F9173018461837BD4680BD00BF79
:100DC800E8010020EA010020E901002080B584B094
:100DD80000AF03463960FB800023FB730123BB731C
:100DE800FB88FF2B08D9FB88FF221946284801F009
:100DF80019F84FF0FF3346E0264B1B78DBB2032B84
:100E080004D0244B1B78DBB2012B02D1214B0422E6
:100E18001A70FB88012B15D8FB881F4A52F823301B
:100E2800002B0FD002F0EAF903467B737B7B022B81
:100E380008D1FB88184A52F82330FA881046984798
:100E48000346BB73FB887B81FB881946386801F031
:100E5800D7F8BB7B002B06D07B89184602F0A6F991
:100E68000346FB7303E07B89184602F002FA97F900
:100E78000F30002B05D097F90F301946074800F0BE
:100E8800D1FF97F90F3018461037BD4680BD00BF17
:100E980090E20008EA010020B4000020D0E2000837
:100EA80080B582B000AF0023FB71002001F014F977
:100EB8000346FB7197F9073018460837BD4680BDD1
:100EC80080B582B000AF0023FB710B4B06221A706D
:100ED80001F0A0F90346FB710822002107480DF034
:100EE8002FF901F01DFD044B00221A7097F9073005
:100EF80018460837BD4680BDEA010020B40000202E
:100F080080B400AF034B1B78DBB21846BD465DF8D2
:100F1800047B7047E901002080B400AF034B1B78C5
:100F2800DBB21846BD465DF8047B7047000200201E
:100F380080B582B000AF00237B600023FB70154BA7
:100F48001B785A1CD1B2134A1170002B09D0124BCE
:100F580001221A600F4B1B78013BDAB20D4B1A7055
:100F680015E062B600BF0D4B1B681B6A7B6000F082
:100F780031FA79680020FFF729FF0346FB7072B643
:100F880000BF044B1B78013BDAB2024B1A700837DA
:100F9800BD4680BDC0000020BC000020E00901085B
:100FA80080B586B000AF786039605C4B7B615C4B84
:100FB8003B610023FB735B4B00221A705A4B0022E3
:100FC8001A7001DF0AF0E0FA09F0C0FF07F074F8C0
:100FD8000AF02AF90AF042F90AF004F80AF0BAF815
:100FE800524B1B6800221A6000210020FFF7F6FD13
:100FF8000346FB7397F90F30002B02D097F90F3097
:1010080088E000F075FD72B600BF62B600BF474BBE
:101018001B685A68454B1B685B68103319461046B5
:10102800FFF7ECFD0346FB7397F90F30002B02D056
:1010380097F90F306EE097F90F30002B0DD14FF074
:10104800FF30FFF75DFEFFF75BFF0346002B04D080
:10105800364B1B68012283F8302072B600BF97ED2B
:10106800050A08F021FBFFF757FF0346002B0CD1B8
:10107800FFF746FF0346002B07D12C4B1B6893F85C
:101088003030002B01D1012300E00023DAB2264BD7
:101098001A7062B600BF62B600BF2FE0FFF700FF0C
:1010A8000346FB73FFF738FF0346002B0AD1FFF70F
:1010B80027FF0346002B05D11C4B1B6893F83030E3
:1010C800002B01D0012300E00023DAB2154B1A707F
:1010D800144B1B78DBB2002B0CBF01230023DBB2BF
:1010E8001A46114B1A700F4B1B78DBB2002B05D038
:1010F8000F4B1B680E4A23F0010313600A4B1B7841
:10110800DBB2002BCAD100F0D1FDFFF7D9FE72B6D1
:1011180000BF002318461837BD4680BD0AD7233CB8
:1011280000002A43C1000020C2000020E009010895
:1011380010E000E080B483B000AF78607B681B6883
:1011480043F001027B681A6000BF0C37BD465DF8AA
:10115800047B704780B483B000AF78607B681B68FD
:1011680023F001027B681A6000BF0C37BD465DF8AA
:10117800047B704780B483B000AF786039607B68C7
:101188001B6823F004023B681A437B681A6000BF9F
:101198000C37BD465DF8047B704780B483B000AF60
:1011A80078607B681B6803F0040318460C37BD465B
:1011B8005DF8047B704780B483B000AF7860396015
:1011C8007B683A681A6300BF0C37BD465DF8047B3C
:1011D800704780B483B000AF78607B685B6943F088
:1011E80001027B685A6100BF0C37BD465DF8047B7D
:1011F8007047000080B485B000AF78607B681B68DA
:101208009A68074B1340FB60FB68062B0CBF012351
:101218000023DBB218461437BD465DF8047B7047DF
:101228000700010080B584B000AF78600B46FB7002
:101238007B681B681846FFF7B0FFF860FB78002B47
:1012480023D07B681B68374A934218D07B681B6899
:10125800354A934213D07B681B68344A93420ED0B8
:101268007B681B68324A934209D07B681B68314A05
:10127800934204D07B681B682F4A934205D17B6850
:101288001B6800211846FFF796FFFB68042B11D056
:101298007B681B6804211846FFF76CFF7B681B6896
:1012A8001846FFF796FF7B681B68F9681846FFF732
:1012B80061FF04E07B681B681846FFF78AFF7B68BC
:1012C8001B681846FFF736FFFB78002B25D07B6894
:1012D8001B68144A934218D07B681B68124A9342D1
:1012E80013D07B681B68114A93420ED07B681B6839
:1012F8000F4A934209D07B681B680E4A934204D078
:101308007B681B680C4A934207D17B681A687B6824
:101318005B7919461046FFF74EFF00BF1037BD46F0
:1013280080BD00BF002C0140003401400040014056
:1013380000440140004801400050014080B582B09F
:1013480000AF78607B681B681846FFF703FF00BF93
:101358000837BD4680BD80B5AAB000AF78607B680D
:1013680000221A727B6801225A604FF08043BB60EA
:1013780000233B7300237B7307F10803184608F02A
:10138800D7FF02467B68DA607B68DB680021184675
:1013980008F05AFD7B68DB680221184608F018FF40
:1013A8007B68DB681846FFF725FF034687F8A730F8
:1013B80097F8A730002B05D17B68DB680021184619
:1013C800FFF730FF7B6801221A7200BFA837BD46BD
:1013D80080BD00002DE9B043AAB000AF00F08CFC3E
:1013E800F0EE407A754BC3ED047A744BD3ED047A72
:1013F8009FED737A67EE877AC7ED287AD7ED287A5A
:101408009FED707A67EE877AC7ED277A6E4BD3E93E
:101418000623C7E924236C4BD3E90423C7E9222315
:101428000023C7F8A430ABE0D7F8A4300233664AEB
:101438000D33DB001344D3E90001D7E92423FFF778
:1014480083F802460B4614461D465F4AD7F8A43077
:101458000D33DB001344D3E90001D7E92223FFF75A
:1014680073F802460B4620462946FEF7B7FE0246A9
:101478000B4690469946544AD7F8A4301133DB00FE
:101488001344D3E90045D7F89C00FFF705F8024656
:101498000B4620462946FFF757F802460B464046BA
:1014A8004946FEF79BFE02460B46D7F8A410C90032
:1014B800A8313944A039C1E90023D7F8A4305B002A
:1014C8007B66414A7B6E0433DB001344D3E9002377
:1014D800C7E91A237B6E01333B4A0433DB0013440C
:1014E800D3E90023C7E91C23374BD3E91A01D7E90D
:1014F8001A23FFF729F802460B4614461D46324BBD
:10150800D3E91E01D7E91C23FFF71EF802460B4654
:1015180020462946FEF762FE02460B46796EC90050
:10152800A83139449039C1E90023274BD3E91C017C
:10153800D7E91A23FFF708F802460B469046994662
:10154800214BD3E92001D7E91C23FEF7FDFF024612
:101558000B46104619467B6E5C1C02460B464046FD
:101568004946FEF73BFE02460B46E100A8313944E6
:101578009039C1E90023D7F8A4300133C7F8A43063
:10158800D7F8A430012B7FF74FAF0F4BD3E91E23B9
:10159800C7E924230C4BD3E91A23C7E922230A4BB2
:1015A800D3E92023C7E92023074BD3E91C23C7E944
:1015B8001E230023C7F8A43082E000BFC800002023
:1015C8000AD7233C00000000E0000020D7F8A43030
:1015D8000233DB00A8333B44903BD3E90023C7E93F
:1015E8001A23D7F8A430DB00A8333B44903BD3E957
:1015F8000023C7E91C23D7E92423D7E91A01FEF7FA
:10160800A3FF02460B4614461D46D7E92223D7E915
:101618001C01FEF799FF02460B4620462946FEF7B5
:10162800DDFD02460B4610461946BA4AD7F8A430E3
:101638000833DB001344D3E90023FEF7CFFD02464D
:101648000B46D7F8A410C900A83139447039C1E94C
:101658000023D7E92023D7E91A01FEF775FF0246D0
:101668000B4614461D46D7E91E23D7E91C01FEF791
:101678006BFF02460B4620462946FEF7AFFD0246A1
:101688000B4690469946D7F8A4300233A14A08334E
:10169800DB001344D3E90023D7F8A4108C1C404680
:1016A8004946FEF79BFD02460B46E100A831394446
:1016B8007039C1E90023D7F8A4300133C7F8A43042
:1016C800D7F8A430012B81DD924BD3E92601D7E965
:1016D8000E23FEF739FF02460B4614461D468D4B76
:1016E800D3E92801D7E91023FEF72EFF02460B465F
:1016F80020462946FEF772FD02460B46104619465B
:10170800844BD3E92623FEF71FFF02460B461446F7
:101718001D46804BD3E92601D7E91223FEF714FFB3
:1017280002460B46904699467A4BD3E92801D7E9F9
:101738001423FEF709FF02460B4640464946FEF7CA
:101748004DFD02460B4610461946724BD3E9282335
:10175800FEF7FAFE02460B4620462946FEF73EFDF6
:1017680002460B46104619466A4BD3E91823FEF782
:1017780035FD02460B46C7E91C23D7E90E01654B28
:10178800D3E92623FEF7E0FE02460B4614461D4623
:10179800604BD3E92801D7E91223FEF7D5FE0246AC
:1017A8000B4620462946FEF719FD02460B46104611
:1017B8001946D7E91C23FEF7F1FF02460B46C7E995
:1017C8001A23544BD3E92601D7E91023FEF7BCFEB0
:1017D80002460B4614461D464E4BD3E92801D7E96D
:1017E8001423FEF7B1FE02460B4620462946FEF7B3
:1017F800F5FC02460B4610461946D7E91C23FEF7AE
:10180800CDFF02460B46C7E91C23D7F8A000FEF718
:1018180043FE04460D463F4BD3E92601D7E9022390
:10182800FEF792FE02460B4690469946394BD3E99D
:101838002801D7E90423FEF787FE02460B464046F7
:101848004946FEF7CBFC02460B4620462946FEF7E2
:10185800C3FC02460B46C7E92423D7E92423D7E96A
:101868001A01FEF771FE02460B4610461946D7E9E3
:101878000223FEF7B3FC02460B462649C1E90423BE
:10188800D7E92423D7E91C01FEF75EFE02460B4682
:1018980010461946D7E90423FEF7A0FC02460B467A
:1018A8001C49C1E906231B4BD3E92601D7E91A23B2
:1018B800FEF74AFE02460B464FF000001649FEF7B7
:1018C8008BFC02460B46C7E9242312494FF000025D
:1018D8004FF00003C1E908230E4BD3E92601D7E9ED
:1018E8001C23FEF731FE02460B464FF000004FF076
:1018F8000001FEF771FC02460B46C7E922230549A1
:101908004FF000024FF00003C1E90A23014BD3E96D
:10191800280103E0E00000200000F03FD7E91A2387
:10192800FEF712FE02460B464FF000004FF0000192
:10193800FEF752FC02460B46C7E9202366494FF0E2
:1019480000024FF00003C1E90C23634BD3E92823BD
:10195800D7E91C01FEF7F8FD02460B46C7E91A2332
:101968005D494FF000024FF00003C1E90E23002348
:10197800C7F8A43080E0D7F8A4305B007B667B6EA4
:10198800DB00A8333B44703BD3E90023C7E91C23A1
:101998007B6E0133504A0433DB001344D3E900451E
:1019A800D7E91C23D7E92201FEF7CEFD02460B46F4
:1019B80020462946FEF712FC02460B46C7E91E23BD
:1019C8007B6E0133DB00A8333B44703BD3E9002333
:1019D800C7E91623D7E91C23D7E92401FEF7B4FD8C
:1019E80002460B46104619463B4A7B6E0433DB0021
:1019F8001344D3E90023FEF7F1FB02460B461446D5
:101A08001D46D7E91623D7E92001FEF79DFD0246BA
:101A18000B4620462946FEF7E1FB02460B462E48B8
:101A2800796E0431C9000144C1E90023D7E91A23BA
:101A38004FF000002949FEF7CFFB02460B4610463F
:101A48001946D7E91623FEF77FFD02460B461046D6
:101A580019467B6E5C1CD7E91E23FEF7BFFB0246C6
:101A68000B461D48211DC9000144C1E90023D7F8D0
:101A7800A4300133C7F8A430D7F8A430012B7FF77E
:101A88007AAF154BD3E904014FF00002144BFEF76F
:101A98005BFD02460B461349C1E900230E4BD3E90F
:101AA80006014FF000020E4BFEF74EFD02460B46B4
:101AB8000C49C1E90223084BDB683A46391D184630
:101AC80008F0BEFC084B1A6A01321A6200BFA83738
:101AD800BD46BDE8B08300BFE00000200000F03F35
:101AE80000005940C80000209001002000000000BC
:101AF80080B500AF62494FF00002624BC1E90A238A
:101B08005F4B614A9A605E4B604ADA605C4B604AA0
:101B18001A615B4B5F4A5A61594B5F4A5A605E4B88
:101B28005E4A1A605D4B5E4A1A605C4B5C4A5A60BA
:101B38005A4B5B4A9A60524A514B5B6818329A601A
:101B48004F4A4F4B5B6808325A604D4B5B684FF009
:101B5800FF321A6153494FF00002534BC1E9082381
:101B6800504939A3D3E90023C1E910234D494FF067
:101B780000024D4BC1E91A234A494FF000024FF0C9
:101B88000003C1E90A2347494FF000024FF0000360
:101B9800C1E9122343492EA3D3E90023C1E91C2339
:101BA80040494FF000024FF00003C1E90C233D49C2
:101BB8004FF000024FF00003C1E91423394926A36E
:101BC800D3E90023C1E91E2336494FF00002364B02
:101BD800C1E90E23334922A3D3E90023C1E916231F
:101BE800304921A3D3E90023C1E920232D4920A3AB
:101BF800D3E90023C1E918232A494FF000022A4BF0
:101C0800C1E9262327494FF000024FF00003C1E93C
:101C1800222324494FF000024FF00003C1E9282392
:101C2800204915A3D3E90023C1E924231D4B002231
:101C38005A601C4B00221A701A48FFF78CFB00BF31
:101C480080BD00BFAFF300808DEDB5A0F7C6B03EF4
:101C580091950E59E9D0F0BF7B14AE47E17A843FE5
:101C68002D431CEBE2361A3FE7E1681E8EE6EF3F94
:101C78001A86568D8B191E3F65934D36D964A33F3E
:101C8800900100200000F0BF27C63427C301BA0F17
:101C98001E0D462BAD9CD2E6C8010020DC010020B9
:101CA800E4090108E00000200000F03F80B500AF23
:101CB800104B1B78002B1BD10E4B01221A700D4BB9
:101CC8005B68012B14D10B4B1B7A002B10D0094BEE
:101CD800DB681846FFF732FB064BDB680021184625
:101CE80008F094F9034BDB680221184608F0C8FA9B
:101CF80000BF80BDE000002080B584B000AF0023A5
:101D0800BB6000237B6042480AF032FE01221021AA
:101D18004FF0904009F066FD3D4B1B6800225A6267
:101D280000BF3B4B1B685B6A092BFAD900221021C4
:101D38004FF0904009F056FD354B1B6800225A625F
:101D480007E0334B1B685B6A324A934201D9324B36
:101D580050E001214FF0904009F02CFD0346002B84
:101D6800EFD02B4B1B685B6ABB6007E0284B1B68F6
:101D78005B6A284A934201D9274B3BE001214FF087
:101D8800904009F017FD0346012BEFD0204B1B684C
:101D98005B6A7B607A68BB68D31A07EE903AF8EE04
:101DA800677A17EE900AFEF777FB17A3D3E90023AB
:101DB800FEF7CAFB02460B4610461946FEF75EFEC2
:101DC8000346FB60D7ED037A9FED147AF4EEC77AE9
:101DD800F1EE10FA01DD124BFB60D7ED037AB0EE9D
:101DE800007AF4EEC77AF1EE10FA02D54FF080438C
:101DF800FB60FB6807EE903AB0EE670A1037BD4605
:101E080080BD00BFAFF30080006F8104C58F913F94
:101E1800280B0020A0860100000080BF000034428B
:101E2800000034420FB480B400AF00BFBD465DF877
:101E3800047B04B0704780B485B000AFF860B96027
:101E48007A60FB68BA681A60FB6804337A681A60BB
:101E580000BF1437BD465DF8047B704780B588B075
:101E680000AF78600B467B800023FB6107F07BFBAB
:101E780003465A4A13607B88002B50D1584B1B6885
:101E88007A689A4205D3564B1B687A68D31ABB61A5
:101E980004E0534B1B687A68D31ABB61514B1B682B
:101EA800BA691344FB604F4B1B68FA689A4204D224
:101EB8004D4B1B6801334C4A13604A4AFB68136058
:101EC800484B1B68484A126819464848FFF7B3FF51
:101ED800434A7B681360BB6942F2107203FB02F24B
:101EE800434B1B681344424A1360414B1B68FB6118
:101EF800404B1B68B3F1FF3F66D03E4B1B6813F1A4
:101F0800020F61D0374B1A683A4B1B689A422CBFB4
:101F180001230023DBB21A46374B1A7054E0002322
:101F28007B6100233B61354B1B68B3F1FF3F09D050
:101F3800324B1B685A1C7B68B3FBF2F101FB02F2BF
:101F48009B1A7B60264B1B687A689A4213D3244BF2
:101F58001B687A68D31A7B61214B1A687B68D31A8D
:101F68003B613A697B699A4202D800237B6115E09C
:101F780000233B6112E01A4B1B687A68D31A7B6115
:101F8800174B1A687B68D31A3B613A697B699A4296
:101F980002D800237B6101E000233B617B69002BB1
:101FA80009D07B6942F2107203FB02F2104B1B68E6
:101FB8001344FB6108E00E4B1A683B6942F210714A
:101FC80001FB03F3D31AFB61044B1B68184607F0A7
:101FD800DBFAFB6918462037BD4680BD1802002091
:101FE80024020020280200202C0200201C020020CD
:101FF8003002002000000020000200200400002021
:1020080080B582B000AF78600B467B807B8819462C
:102018007868FFF723FF00BF0837BD4680BD000082
:1020280080B584B000AF0023BB6000237B60002331
:10203800FB7324494FF000024FF00003C1E900236D
:1020480021494FF000024FF00003C1E900231F4B64
:1020580000221A603A1D07F108031146184600F0DD
:1020680015FDBB687A681146184604F02FF9034637
:10207800FB7397F90F30002B05D01548FFF7D2FEF8
:1020880097F90F301AE03A1D07F108031146184670
:1020980000F013FDBB687A681146184600F08AFF05
:1020A8000346FB7397F90F30002B05D097F90F30D3
:1020B80019460848FFF7B6FE97F90F30184610374B
:1020C800BD4680BD08020020100200201802002032
:1020D80014E400083CE4000880B584B000AF03466F
:1020E800FB710023FB730023BB73002005F0CCFFBA
:1020F80000237B7304F0B8FA0346FB7397F90F309B
:10210800002B0DD097F90F3013F1020F08D097F973
:102118000F3019463C48FFF785FE0123BB730BE0DF
:102128007B7B002B04D197F90F3013F1020F01D0FC
:10213800012300E000237B73BB7B002B21D100F03F
:102148006BFF0346FB7397F90F30002B0DD097F9FF
:102158000F3013F1020F08D097F90F3019462B48AA
:10216800FFF760FE0123BB730BE07B7B002B04D1E0
:1021780097F90F3013F1020F01D0012300E000237B
:102188007B73BB7B002B21D104F0F8F90346FB736A
:1021980097F90F30002B0DD097F90F3013F1020F7C
:1021A80008D097F90F3019461948FFF73BFE01236D
:1021B800BB730BE07B7B002B04D197F90F3013F135
:1021C800020F01D0012300E000237B73FB79002B71
:1021D8000DD0002005F058FFBB7B002B02D17B7B84
:1021E800002B01D1012300E00023BB7301E0012390
:1021F800BB73BB7B002B3FF47BAF97F90F301846BE
:102208001037BD4680BD00BF64E400089CE40008A8
:10221800CCE4000880B582B000AF0023BB703A4B15
:102228001B78DBB2002B02D0002001F013F800F07D
:10223800E5FF0346FB7000237B600EE00A2005F0F3
:1022480023FF7B6803F51C5310337B600120FFF7E5
:1022580043FF00F0D3FF0346FB707B682B4A934291
:1022680002D2FB78002BE9D100F0D4FF0346BB7003
:1022780097F90230002B05D097F902301946244807
:10228800FFF7D0FD04F06AFB0346BB7097F90230F4
:10229800002B05D097F9023019461E48FFF7C2FDFA
:1022A8001D4B00221A701D4B00221A701C4B002275
:1022B8001A601C4B00221A601B4B00221A601B4B31
:1022C80000221A601A4B00221A601A4B6FF00102A2
:1022D8001A600D4B00221A700822002116480BF0D4
:1022E8002FFF164B00221A60154B00221A60154B5F
:1022F80000221A60144B00221A6097F9023018461F
:102308000837BD4680BD00BF000200200087930348
:1023180004E5000820E50008E8010020E9010020A4
:10232800EC010020F0010020F4010020F801002059
:10233800FC010020000000201C02002024020020D4
:10234800280200202C0200203002002080B586B030
:1023580000AF614B1B687B617B69002B00F0B88084
:102368005E4B1B78DBB2002B04D15B4B1B68002B48
:1023780000F0AE805A4B1B78DBB2022B40F0A880ED
:10238800584B1B78002B40F0A3807B69D3E90023CE
:10239800C7E90223544B1B78002B00F08A80534B6B
:1023A8001B78DBB2002B04D0504B1B78DBB2022B1E
:1023B80001D1012300E00023FB714C4B1B78DBB2F9
:1023C800012B04D0494B1B78DBB2022B01D101232E
:1023D80000E00023BB71FB79002B33D0444BD3E9D9
:1023E8000023D7E90201FEF735FB0346002B0AD08C
:1023F800404BD3E900013E4BD3E90023FEF716FB1F
:102408000346002B14D13A4BD3E90023D7E9020144
:10241800FEF72AFB0346002B14D0364BD3E9000104
:10242800334BD3E90023FEF7F7FA0346002B09D014
:10243800314B1B68002B02D1304B01221A70294BFB
:1024480001221A70BB79002B33D0294BD3E9002322
:10245800D7E90201FEF7EAFA0346002B0AD0254B1A
:10246800D3E90001224BD3E90023FEF7F3FA034630
:10247800002B14D11E4BD3E90023D7E90201FEF744
:10248800CBFA0346002B14D01A4BD3E90001184BA2
:10249800D3E90023FEF7E8FA0346002B09D0164BD0
:1024A8001B68002B02D1154B01221A700D4B01221B
:1024B8001A700C4B1B78002B0CBF01230023DBB2D6
:1024C8001A46094B1A700B49D7E90223C1E90023C0
:1024D80000BF1837BD4680BD380200203C020020EE
:1024E80054020020630200206002002050020020F5
:1024F80040020020580200204C0200206202002006
:1025080080B582B000AF0023FB719E4B1B78DBB215
:10251800002B18D19C4B00221A709C4B00221A7079
:102528009B4B1B78DBB2002B2DD0964B02221A70E6
:10253800974B00221A70974B1B78DBB2002B22D1E5
:102548000123FB711FE0924B00221A708E4B1B78FF
:10255800DBB2002B09D0904B00221A70894B002265
:102568001A70894B00221A700DE08A4B1B78DBB277
:10257800002B02D10123FB7105E0844B1B78FB7112
:10258800824B00221A707F4B1B78DBB2042B00F2BF
:10259800D78001A252F823F0B5250008EF260008DD
:1025A800CF250008A32600082D260008784B1B78A5
:1025B800DBB2002B00F0D880724B02221A70744BE9
:1025C80000221A70D0E0FB79002B00F0CF80734B0B
:1025D8001B68002B0DDD6F4B1B78DBB2012B08D17C
:1025E8006E4B1B681A466E4B1A60664B03221A70B4
:1025F800BCE06C4B1B68002B0AD0674B01221A7099
:10260800684B1B68664A13605E4B04221A70ADE083
:102618006548FFF707FC604B00221A70594B0022EF
:102628001A70A3E05E4B1B68002B04D05C4B1B6840
:10263800013B5B4A13605A4B1B68002B40F09880A3
:102648005A4B1B78DBB2012B06D1534B00221A7070
:102658004C4B00221A708BE0554B1B68002B0AD09C
:102668004D4B00221A70524B1B684D4A1360454B64
:1026780001221A707CE0FB79002B07D0494B1B68BC
:10268800474A13603F4B04221A7071E0424B002204
:102698001A703C4B02221A706AE0414B1B68002BEF
:1026A80004D03F4B1B68013B3D4A13603C4B1B6801
:1026B800002B5FD13B4B1B68002B0AD0364B012205
:1026C8001A70384B1B68364A13602E4B04221A7056
:1026D80050E03548FFF7A6FB2F4B00221A70294B14
:1026E80000221A7046E02E4B1B68002B04D02C4B9E
:1026F8001B68013B2A4A1360294B1B68002B3BD1FE
:10270800FB79002B18D0274B1B68002B0AD0224BD3
:1027180001221A70234B1B68214A1360194B0422AB
:102728001A7029E02048FFF77DFB1B4B00221A7026
:10273800144B00221A701FE0124B02221A701BE081
:10274800104B1B78DBB219461A48FFF76BFB124B8C
:1027580000221A700D4B00221A700B4B00221A70BF
:10276800084B00221A7008E000BF06E000BF04E032
:1027780000BF02E000BF00E000BF00BF0837BD4651
:1027880080BD00BF540200205102002063020020D7
:102798000C00002052020020620200204C0200209F
:1027A800640200200800002044E5000853020020CD
:1027B800480200206CE5000880B400AF10494FF0D3
:1027C80000024FF00003C1E900230E4B00221A70EB
:1027D8000D4B1B78DAB20D4B1A700D4B00221A7094
:1027E8000C4B00221A700C4B00221A600B4B002273
:1027F8001A7000231846BD465DF8047B704700BF79
:1028080058020020600200205202002061020020CD
:1028180062020020630200206402002054020020AB
:1028280080B584B000AF0346FB80FB88002B3FD106
:10283800314B1B78DAB2314B1B789A4214BF012313
:102848000023DBB2FB732C4B1B78DAB22B4B1A70CC
:10285800FB7B002B0BD02A4B00221A70294B00223D
:102868001A70294B00221A60284B00221A70224B3A
:102878001B78DBB2012B1BD1244B1B78DBB2002B5E
:1028880004D1234B1B78DBB2002B08D11F4B1B78DC
:10289800DBB2012B0CD11C4B1B68012B08D11A4B46
:1028A80000221A601A4B00221A70184B02221A7062
:1028B800114B1B78DBB2012B07D1164B1B889BB23F
:1028C800FA889A4201D1FFF741FDFB88002B05D118
:1028D800FFF716FE104B00221A7006E00E4B1B780D
:1028E800002B02D00D4B1B7801E0054B1B781846D6
:1028F8001037BD4680BD00BF520200206102002093
:1029080062020020630200206402002054020020BA
:102918000C00002034020020690200206802002018
:1029280080B400AF26494FF000024FF00003C1E920
:102938000023244B00221A70234B00221A70234BC9
:1029480000221A70224B00221A80224B00221A7091
:10295800214B00221A70214B00221A60204B0022C2
:102968001A70204B00221A701F4B00221A601F4B4E
:1029780000221A701E494FF000024FF00003C1E90F
:1029880000231C4B4FF47A721A601B4B00221A600A
:102998001A4B00221A601A4B00221A70194B012296
:1029A8001A70194B00221A70184B00221A70184B13
:1029B80000221A7000231846BD465DF8047B704754
:1029C800580200206002002054020020610200200A
:1029D800340200206202002063020020640200200A
:1029E8006802002069020020380200203C02002012
:1029F8004002002008000020480200204C0200206D
:102A0800500200200C000020510200205202002039
:102A18005302002080B400AF174B1B78DBB2002BA9
:102A280025D1164B1B78DBB2002B0BD0144B1B782F
:102A3800DBB2002B06D1134B01221A70124B012274
:102A48001A7014E00E4B1B78DBB2002B0BD00B4B2B
:102A58001B78DBB2002B06D10A4B00221A700A4BF6
:102A680001221A7003E0084B00221A70FFE700BF2A
:102A7800BD465DF8047B7047520200200C00002020
:102A880051020020680200206902002080B483B04F
:102A980000AF786039607B68002B08D03B68002B5A
:102AA80005D07B6800221A603B6800221A6000BFCC
:102AB8000C37BD465DF8047B704780B483B000AF27
:102AC800786039607B68002B08D03B68002B05D004
:102AD8007B6800221A603B6800221A6000BF0C372E
:102AE800BD465DF8047B704780B586B000AFF860DE
:102AF800B9607A603B600023FB7503F023FF3861FF
:102B0800FB681B68184604F033F90021386803F0A5
:102B180091FE0246BB681A6003F07CFE02467B68A1
:102B28001A60BB681B68002B0FD0BB681B6819466E
:102B3800386904F023FC0246FB681A60FB681B68CE
:102B4800002B04D1F623FB7501E0F823FB7597F9F8
:102B5800173018461837BD4680BD000080B584B0D0
:102B680000AFF860B9607A60FA68BB6813441B78F4
:102B780019460848FFF756F9FB68002B02D0F86899
:102B880004F0F6F87B6800221A6000231846103714
:102B9800BD4680BD90E5000880B584B000AFF86000
:102BA800B9607A60FA68BB6813441B78194606480E
:102BB800FFF738F97B6802221A604FF0FF33184696
:102BC8001037BD4680BD00BFECE5000880B485B075
:102BD80000AF03460A46FB711346BB710523FB731E
:102BE800FB79F02B02D90023FB7322E0FB79E32B5E
:102BF80005D9FB79F02B02D80123FB7319E0FB7987
:102C0800D22B02D9FB79E22B08D9FB79C02B08D14A
:102C1800BB79002B05D0BB79022B02D80223FB73AA
:102C280007E0FB79C72B04D9FB79D22B01D8032302
:102C3800FB73FB7B18461437BD465DF8047B704771
:102C480080B58CB000AFF860B9607A603B60FB6813
:102C5800BB62BB6A1B7887F82730002387F82F30C0
:102C680097F82730C02B06D1BB68012B03D9BB6A64
:102C78005B7887F82F30364B1B78002B3ED097F8BF
:102C88002F2097F8273011461846FFF79FFF034675
:102C9800FB76002387F82E30FB7E052B23D0FB7EA6
:102CA8002C4A52F823307B6100233B617B69002B5F
:102CB80019D097F827207B691046984738613B69F7
:102CC800002B14BF01230023DBB287F82E3097F8BE
:102CD8002E30002B07D03B695A687B681A603B6925
:102CE8009A683B681A6097F82E30002B2CD17B68C5
:102CF800194A1A603B68194A1A6025E097F8273084
:102D0800FF2B1BD1134B1B683B627B6800221A60A8
:102D18003B6800221A603B6A002B15D03B6AFF20F3
:102D28009847F861FB69002B0ED0FB695A687B68ED
:102D38001A60FB699A683B681A6005E07B68084A74
:102D48001A603B6800221A6000BF3037BD4680BD5C
:102D58006B02002070020020A12B0008312E000811
:102D6800652B000880B483B000AF0346FB71044AAA
:102D7800FB79137000BF0C37BD465DF8047B7047C4
:102D88006B02002080B400AF034B1B781846BD4689
:102D98005DF8047B704700BF6C02002080B483B0EC
:102DA80000AF0346FB71064B1A78FB791343DAB27E
:102DB800034B1A7000BF0C37BD465DF8047B7047A3
:102DC8006C02002080B483B000AF0346FB7197F912
:102DD8000730DB435AB2074B1B785BB213405BB238
:102DE800DAB2044B1A7000BF0C37BD465DF8047B9D
:102DF800704700BF6C02002080B400AF034B1B7803
:102E08001846BD465DF8047B704700BF6D02002080
:102E180080B400AF034B1B881846BD465DF8047BA1
:102E2800704700BF6E02002080B586B000AF034631
:102E3800B9607A60FB7397F90F30002B05D1BB6836
:102E48003B613B69FF221A7076E0BB687B617B6956
:102E5800FE221A7097F90F3010330F2B62D801A297
:102E680052F823F0252F00081D2F0008152F000801
:102E78000D2F0008052F0008FD2E0008ED2E000874
:102E8800F52E0008E52E0008DD2E0008D52E0008D6
:102E9800CD2E0008B52E0008AD2E0008BD2E000866
:102EA800C52E00087B6930225A7045E07B692922CB
:102EB8005A7041E07B6922225A703DE07B692022EA
:102EC8005A7039E07B6900225A7035E07B69232209
:102ED8005A7031E07B6921225A702DE07B691122FA
:102EE8005A7029E07B6927225A7025E07B692A22DB
:102EF8005A7021E07B6910225A701DE07B692422F8
:102F08005A7019E07B6928225A7015E07B692622DD
:102F18005A7011E07B6931225A700DE07B693322C7
:102F28005A7009E097F90F3019460548FEF77AFFFD
:102F38007B6920225A70FFE700BF1837BD4680BD65
:102F48001CE6000880B487B000AF0346B9607A6019
:102F5800FB7300237B61BB68002B23D000233B61FC
:102F680000233B6117E03A6913465B0013449B005A
:102F78001A46BB6813441B78FA7B9A4208D13A690F
:102F880013465B0013449B001A46BB6813447B61DD
:102F98003B6901333B613A697B689A4202D27B699B
:102FA800002BE0D07B6918461C37BD465DF8047BD2
:102FB8007047000080B582B000AF78603960134B6D
:102FC8001B78002B05D01248FEF72CFF6FF00B037F
:102FD80018E000F07BFC00F085FC03460D4A136006
:102FE80002F078FA02F092FA03460A4A936003F074
:102FF8006BF803F073F80346064A5360034B01224B
:103008001A70002318460837BD4680BD6A020020A2
:1030180060E600087002002080B58CB002AF002383
:1030280087F82730002387F826300023FB61002328
:10303800BB6100237B6100233B610023FB6000230D
:103048003B620023BB6000237B60554B1B78002B41
:1030580005D15448FEF7E6FE6FF008039BE007F140
:10306800140007F1180207F11C0107F1100300937F
:103078000346002003F038FB034687F8273097F90A
:103088002730002B09D097F9273013F1040F04D00B
:1030980097F9273013F1050F71D1FB69002B05D083
:1030A8007A693B691A44BB699A4203D9F82387F8BD
:1030B800273067E0FA697B6913443B6239693B1D35
:1030C80007F10802386AFFF7BBFDBB68002B09D17E
:1030D8003B6A1B7819463448FEF7A4FEF42387F8A8
:1030E80027304FE0BB68F869796907F10C02984707
:1030F800034687F826307B68002B3DD0FB68002B01
:103108003AD0002387F827303A69FB689A420BD2F5
:10311800FB6807F1140207F1180107F11C00FFF71B
:10312800E3FC034687F827303B691A460021386AD2
:103138000BF006F897F92730002B1DD1FA697B6947
:1031480013443B627B68FA6897F92600396A984706
:10315800F969B8697B69FA680192009303460A46DF
:103168004FF6FF71012003F067F9034687F827300F
:1031780097F92730002B04D197F927300BE000BFCF
:1031880000E000BFFB69002B03D0FB69184603F081
:10319800EFFD97F9273018462837BD4680BD00BF98
:1031A8006A02002090E60008B8E6000880B584B0FE
:1031B80000AF0346FB800023FB730023BB600D4B6D
:1031C8001B78002B05D10C48FEF72CFE6FF0080386
:1031D8000CE004F0C3FFB860FB880022B968184609
:1031E80002F092FB0346FB7397F90F30184610372D
:1031F800BD4680BD6A020020E8E6000880B400AF42
:10320800034B1B781846BD465DF8047B704700BF2A
:103218006B02002080B500AF0B4B1B78002B02D14E
:103228000A48FEF7FFFD02F075FF02F017FE00F0F6
:1032380075FB1022002106480AF082FF024B00228B
:103248001A700023184680BD6A020020E0E70008D3
:103258007002002080B584B000AF7860786802F012
:10326800D7FB0346FB7397F90F3018461037BD4656
:1032780080BD80B584B000AF0346FB800123FB739B
:10328800FA7BFB880021184602F03EFB0346BB731D
:1032980097F90E3018461037BD4680BD80B584B00A
:1032A80000AF0346FB710123FB6003F002FBB8602B
:1032B800FA79B968FB68B1FBF3F39A4234BF01238A
:1032C8000023DBB218461037BD4680BD80B584B0F8
:1032D80000AF78600B46FB7000F02AFBF860F968D5
:1032E8000648FEF79FFD064B1B781A46F968786872
:1032F8000AF052FF00BF1037BD4680BD08E800083D
:103308008802002080B588B000AFF860B9607A60A4
:103318000023FB77FA68BB681344BB61BB697B6118
:103328000023FB7402F0CCFC0346FB74FB7C002BEF
:1033380008D11A48FEF776FD7B6802221A606FF002
:103348000A0327E07B695B78002B03D07B695B78F5
:10335800012B01D1012300E00023FB74FB7C002B2F
:103368000BD17B695B7819460D48FEF75BFD7B68DE
:1033780002221A606FF001030CE00A48FEF752FDC2
:103388000120FFF7EFFC0023FB777B6808221A6017
:1033980097F91F3018462037BD4680BD20E8000841
:1033A8006CE8000890E8000880B586B000AF0346D6
:1033B800B9607A60FB7397F90F30002B47D1BB686F
:1033C8007B610822002178690AF0BAFE7B69FF2236
:1033D8001A7005227B695A7000227B699A7003F083
:1033E80068FA0346DAB27B69DA7003F05BFA0346DF
:1033F8009AB27B699A807B6901229A717B69012262
:10340800DA717B695B7819461648FEF70BFD7B6914
:103418009B7819461448FEF705FD7B69DB78194649
:103428001248FEF7FFFC7B699B889BB2194610483F
:10343800FEF7F8FC7B699B7919460E48FEF7F2FC0B
:103448007B69DB7919460C48FEF7ECFC06E097F936
:103458000F307A68B9681846FFF7E6FC00BF1837DE
:10346800BD4680BDB8E80008D4E80008F0E80008C8
:103478000CE9000828E9000844E9000880B586B08E
:1034880000AFF860B9607A600123FB7502F018FCA0
:103498000346FB75FB7D002B08D10B48FEF7C2FCE9
:1034A8007B6802221A606FF00A0309E00748FEF7FA
:1034B800B9FC0020FFF756FC7B6801221A60002344
:1034C80018461837BD4680BD60E90008B0E9000815
:1034D80080B584B000AFF860B9607A600548FEF73F
:1034E800A1FC7B6806221A60002318461037BD46E7
:1034F80080BD00BFE0E9000880B586B000AF034694
:10350800B9607A60FB73BB687B6106220021786929
:103518000AF016FE7B69FF221A70FFF733FC034698
:103528001A467B695A70FFF767FC03461A467B699F
:103538009A70FFF76DFC03461A467B699A807B698F
:103548005B7819460948FEF76DFC7B699B7819463C
:103558000748FEF767FC7B699B889BB219460548BC
:10356800FEF760FC00BF1837BD4680BDECE90008D7
:1035780010EA000834EA000880B586B000AFF860A9
:10358800B9607A600023FB750B48FEF74BFC02F02C
:1035980081FB0346FB75FB7D002B03D003F0B2F9DA
:1035A80002F087FB7B6802221A606FF0040318465A
:1035B8001837BD4680BD00BF58EA000880B588B0FE
:1035C80000AFF860B9607A600023FB77FA68BB68DF
:1035D8001344BB61BB697B610023FB747B695A6838
:1035E8007B69DB781946104600F0AEF90346FB7498
:1035F800FB7C002B08D10D48FEF714FC7B680222E7
:103608001A606FF00B030CE07B6959687B69DB7803
:103618001A460748FEF706FC7B6801221A6097F9EC
:103628001F3018462037BD4680BD00BF60EA00083D
:103638007CEA000880B58AB000AFF860B9607A60AB
:10364800002387F82730FA68BB6813443B623B6A5B
:10365800FB610023FB7600F06BF97861FB695B780E
:103668001846FFF71BFE0346FB76FB7E002B0BD1AB
:10367800FB695B7819461248FEF7D4FB7B68022287
:103688001A606FF0010316E07B69002B08D10D4822
:10369800FEF7C8FB7B6802221A606FF00B030AE092
:1036A800FB695A78084B1A70074B1B785A1C7B68C1
:1036B8001A6097F9273018462837BD4680BD00BFE5
:1036C800B0EA0008E0EA00088802002080B588B067
:1036D80000AF0346B9607A60FB7397F90F30002B8F
:1036E80030D100F025F9F861BB68BB6101220021E7
:1036F800B8690AF025FDBB69FF221A70FB69002B27
:103708001CD0164B1B7801337A689A4216D1BB68D5
:1037180001337B610023FB741148FEF783FBFB7CBC
:1037280019467869FFF7D2FD0C4B1B78184600F054
:1037380029F90A4B00221A7000BF0AE00948FEF76F
:1037480071FB06E097F90F307A68B9681846FFF7F9
:103758006BFB00BF2037BD4680BD00BF880200203C
:10376800FCEA000808EB000880B588B000AFF860F4
:10377800B9607A600023FB77FA68BB681344BB61C1
:10378800BB697B610023FB747B695B781846FFF794
:1037980085FD0346FB74FB7C002B0BD17B695B78B2
:1037A80019461748FEF73EFB7B6802221A606FF045
:1037B800010320E07B695A687B69DB78194610466B
:1037C80000F0C2F80346FB74FB7C002B08D10D48BF
:1037D800FEF728FB7B6802221A606FF00B030AE0F1
:1037E8007B695A78084B1A70074B1B785A1C7B6800
:1037F8001A6097F91F3018462037BD4680BD00BFB4
:1038080028EB00085CEB00088802002080B588B02F
:1038180000AF0346B9607A60FB7397F90F30002B4D
:1038280030D100F085F8F861BB68BB610122002146
:10383800B8690AF085FCBB69FF221A70FB69002B86
:103848001CD0164B1B7801337A689A4216D1BB6894
:1038580001337B610023FB741148FEF7E3FAFB7C1C
:1038680019467869FFF732FD0C4B1B78184600F0B3
:1038780089F80A4B00221A7000BF0AE00948FEF7CF
:10388800D1FA06E097F90F307A68B9681846FFF759
:10389800CBFA00BF2037BD4680BD00BF880200209C
:1038A8007CEB00088CEB000880B582B000AF0346C3
:1038B800FB71FB79072204491846FFF743FB0346CF
:1038C80018460837BD4680BDE809010880B500AF35
:1038D800034800F013F800F069F800BF80BD00BF8E
:1038E800B138000880B400AF034B1B681846BD46CA
:1038F8005DF8047B704700BF8C02002080B483B061
:1039080000AF7860044A7B68136000BF0C37BD467F
:103918005DF8047B704700BF8C02002080B500AFC3
:1039280000F04BF80020FFF7E9FF00BF80BD000062
:1039380080B400AF034B1B681846BD465DF8047B96
:10394800704700BF8002002080B483B000AF786069
:103958000B46FB70FB78002B04D17B68002B01D150
:10396800002306E0064A7B681360054AFB7813715A
:10397800012318460C37BD465DF8047B704700BF2D
:103988008002002080B483B000AF0346FB71064B71
:103998001A68FB791344044A136000BF0C37BD460C
:1039A8005DF8047B704700BF8002002080B400AF40
:1039B80000BFBD465DF8047B704780B400AF00BF10
:1039C800BD465DF8047B704780B584B000AF034600
:1039D800FB800023FB7305F0C6FD03460B4A13600A
:1039E8000B4B1B68002B0CBF01230023DBB2FB73BE
:1039F800FB7B002B04D1054B1B68184605F0C4FD62
:103A0800FB7B18461037BD4680BD00BF9C020020D6
:103A18009802002080B582B000AF0346FB80044BBB
:103A28001B68184605F0B0FD00BF0837BD4680BDCD
:103A38009C02002080B582B000AF0346FB8005F0F1
:103A480092FD0346074A1360074B1B680133064A79
:103A58001360044B1B68184605F096FD00BF083735
:103A6800BD4680BD9C0200209802002080B582B02F
:103A780000AF0346FB8005F076FD0346074A136056
:103A8800074B1B68013B064A1360044B1B6818462A
:103A980005F07AFD00BF0837BD4680BD9C020020B6
:103AA8009802002080B483B000AF0346FB80104B1F
:103AB8001968FA8813465B001344DB000B445B79F2
:103AC800022B0AD00A4B1968FA8813465B00134484
:103AD800DB000B445B79032B01D1012300E00023B9
:103AE800DBB218460C37BD465DF8047B704700BF53
:103AF8009002002080B582B000AF0023FB71002344
:103B0800BB800023BB8008E0BB881846FFF7CAFFCC
:103B18000346FB71BB880133BB80094B9B88BA887D
:103B28009A4202D2FB79002BEED0FB79002B0CBF16
:103B380001230023DBB218460837BD4680BD00BF0D
:103B48009002002080B485B000AF0346FB800B468E
:103B58007B7113463B71284B1B68002B42D0264BC8
:103B68009B88FA889A423DD2234B1968FA881346F3
:103B78005B001344DB000B441B68002B32D01E4B48
:103B88001968FA8813465B001344DB000B441B7961
:103B98007A799A4226D2184B1968FA8813465B003C
:103BA8001344DB000B4419687A791346DB009B1A2F
:103BB8009B000B441B68002B14D00F4B1968FA8824
:103BC80013465B001344DB000B4419687A791346EB
:103BD800DB009B1A9B000B441B793A799A4201D26D
:103BE800012300E00023FB73FB7B18461437BD4616
:103BF8005DF8047B704700BF9002002080B485B058
:103C080000AF03463A60FB710B46BB710023FB73A0
:103C1800BB79BB81FB79FF2B04D1BB89FF2B01D872
:103C28000123FB73FB7B18461437BD465DF8047B04
:103C3800704780B483B000AF0346FB71FB7923F073
:103C48001003002B0CBF01230023DBB218460C37EE
:103C5800BD465DF8047B704780B485B000AF03466D
:103C6800FB710023FB73FB79002B05D0FB79012B3B
:103C780002D0FB79022B01D10123FB73FB7B184691
:103C88001437BD465DF8047B704780B485B000AF3B
:103C98000346FB710023FB73FB79002B05D0FB79EE
:103CA800012B02D0FB79022B01D10123FB73FB7B93
:103CB80018461437BD465DF8047B704780B400AFE2
:103CC80001231846BD465DF8047B704780B485B073
:103CD80000AF0346FB80164B1968FA8813465B0051
:103CE8001344DB000B441B7B022B0ED1104B1968CD
:103CF800FA8813465B001344DB000B44DA880D4B4B
:103D08001B889A4201D0012300E00023FB73FB7B50
:103D1800002B04D0FB88002B01D1012300E00023F5
:103D2800FB73FB7B18461437BD465DF8047B704770
:103D3800900200201800002080B485B000AF7860A1
:103D48000B46FB707B681968FA781346DB009B1AF0
:103D58009B000B44BB60BB689B687A68D28902FBF6
:103D680003F30133FB60FB78002B08D17B681B7AD7
:103D780003F01003002B02D0FB680433FB60FB68E0
:103D880018461437BD465DF8047B704780B586B089
:103D980000AF78600023BB7400237B610023FB74B1
:103DA8000023FB7415E0FB7C19467868FFF7C4FF15
:103DB800F8600023BB600121F86802F03BFDB860A1
:103DC800BA687B699A4201D9BB687B61FB7C013385
:103DD800FB747B681B79FA7C9A42E4D37B681B7975
:103DE8001A4613465B0099187B6814331A4678699B
:103DF80003F076F80346BB7497F91230002B03D012
:103E08007B684FF0FF325A6197F91230184618371D
:103E1800BD4680BD80B582B000AF78607B685B69C5
:103E2800B3F1FF3F04D07B685B69184603F06AF979
:103E38007B684FF0FF325A6100BF0837BD4680BD2E
:103E480080B58AB000AFF860B9607A60002387F85F
:103E58002730FA68BB6813443B623B6AFB61FB6925
:103E68009A78DB781B0213437B83FB691B797B768B
:103E7800FB695B793B760023FB753A7E797E7B8B09
:103E88001846FFF75FFE0346FB75FB7D002B0BD141
:103E9800798B7A7E3B7E1D48FDF7C4FF7B68022242
:103EA8001A606FF001032CE07B8B1846FFF7FAFDD0
:103EB8000346002B0CBF01230023DBB2FB75FB7DFF
:103EC800002B0AD17B8B19461148FDF7ABFF7B68A5
:103ED80002221A606FF0070313E0798B7A7E3B7E2B
:103EE8000C48FDF79FFF0C4A7B8B13800A4A7B7EA8
:103EF8009370094A3B7ED3707B6801221A6097F958
:103F0800273018462837BD4680BD00BFB4EB0008EF
:103F1800F8EB000828EC000814000020F0B58FB07A
:103F280004AFF860B9607A60002387F82730FA6830
:103F3800BB6813443B623B6AFB61584B1B887B831D
:103F4800564B9B787B76554BDB783B7600237B6121
:103F58000023FB743A7E797E7B8B1846FFF7F2FDCF
:103F68000346FB74FB7C002B0BD1798B7A7E3B7E5E
:103F78004B48FDF757FF7B6802221A606FF0050374
:103F880087E07B8B1846FFF78DFD0346002B0CBF9F
:103F980001230023DBB2FB74FB7C002B0AD17B8B53
:103FA80019464048FDF73EFF7B6802221A606FF011
:103FB80007036EE0FB695878FB699978FB695B68D1
:103FC8001A46FFF71BFE0346FB74FB7C002B1BD134
:103FD800798B7A7E387EFB695B781C46FB699B7817
:103FE8001D46FB69DB781E46FB695B6803930296F6
:103FF8000195009403462C48FDF714FF7B680222C4
:104008001A606FF0010344E0798B7A7E387EFB6991
:104018005B781C46FB699B781D46FB69DB781E466E
:10402800FB695B68039302960195009403461F4859
:10403800FDF7F8FE1E4B19687A8B13465B00134494
:10404800DB000B4419687A7E1346DB009B1A9B0041
:104058000B441A683B7EDB0013447B61FB695A788A
:104068007B691A70FB699A787B695A70FB69DA7800
:104078007B699A70FB695A687B695A60074BDB78E1
:104088000133DAB2054BDA707B6801221A6097F9BE
:10409800273018462C37BD46F0BD00BF140000205D
:1040A80078EC0008D4EC000804ED00087CED00086A
:1040B8009002002090B58DB002AFF860B9607A60C8
:1040C800002387F82730FA68BB6813443B623B6AD1
:1040D800FB610023BB610023FB75614B1B68002B50
:1040E80008D0FB695B889AB25D4B9B889A4201D2E3
:1040F800012300E00023FB75FB7D002B0CD1FB693D
:104108005B889BB219465748FDF78CFE7B680222F4
:104118001A606FF001039FE0514B1A68FB695B88D6
:104128009BB219460B465B000B44DB001344BB6192
:10413800FB695B889BB21846FFF7B4FC0346002B6B
:104148000CBF01230023DBB2FB75FB7D002B0CD1D8
:10415800FB695B889BB219464348FDF763FE7B68A1
:1041680002221A606FF0070376E0FB699B889BB216
:104178007F2B94BF01230023DBB2FB75FB7D002B53
:104188000CD1FB699B889BB219463848FDF74AFE5B
:104198007B6802221A606FF001035DE0FB69DB793E
:1041A800002B0CBF01230023DBB2FB75FB7D002B2A
:1041B80008D12F48FDF736FE7B6802221A606FF09F
:1041C800010349E0FB695B781846FFF732FD0346B7
:1041D800FB75FB7D002B0BD1FB695B7819462548E5
:1041E800FDF720FE7B6802221A606FF0090333E0B6
:1041F800FB695B889BB21946FB695B781846FB69CB
:104208009B889BB21C46FB699B791A46FB69DB7944
:1042180001930092234602461748FDF703FEFB6907
:104228005A78BB691A72FB699B889AB2BB69DA80B3
:10423800FB699A79BB695A72FB69DA79BB699A7228
:10424800BB695B7A012B02D8BB6901225A727B6871
:1042580001221A6097F9273018462C37BD4690BDC1
:1042680090020020ECED00081CEE000850EE00085B
:1042780080EE0008BCEE0008F0EE000890B58FB0A4
:1042880000AFF860B9607A60002387F82630FA68D2
:10429800BB6813443B623B6AFB610023BB61FB695B
:1042A8005B889BB27B61002387F837300023FB745F
:1042B8008A4B1B68002B07D0884B9B881A467B6962
:1042C800934201DA012300E0002387F8373097F89A
:1042D8003730002B09D179698148FDF7A3FD7B6848
:1042E80002221A606FF00103B2E17E4A7B69136013
:1042F8007A4B19687A6913465B001344DB000B4458
:10430800BB61FB695B781846FFF7A6FC034687F894
:10431800373097F83730002B0BD1FB695B7819469B
:104328007148FDF77FFD7B6802221A606FF0090370
:104338008EE1FFF7C3FC0346002B5AD0BB695B79BB
:10434800002B56D1BB691B7A03F00203002B21D046
:10435800BB691B68002B09D0604BDB791A46BB6927
:104368001B791344802B01DC012300E0002387F82C
:10437800373097F83730002B2DD0584BDA79BB6996
:10438800DA72564BDA79BB691B791344DAB2534BAC
:10439800DA7120E0BB691B68002B09D04F4B9B7971
:1043A8001A46BB691B791344FC2B01DC012300E08E
:1043B800002387F8373097F83730002B0BD0474B5E
:1043C8009A79BB69DA72454B9A79BB691B791344B0
:1043D800DAB2424B9A7197F83730002B09D17969D4
:1043E8004248FDF71FFD7B6802221A606FF0080340
:1043F8002EE1FB695B78012B04D0FB695B78022B0B
:1044080040F0908000233B63012387F83730002376
:104418003B637CE00023FB620023BB620023FB625A
:1044280013E0BB6919683A6B1346DB009B1A9B00C3
:104438000B441A68FB6ADB0013445B781A46BB6AB4
:104448001344BB62FB6A0133FB62BB6919683A6BB0
:104458001346DB009B1A9B000B441B791A46FB6A28
:104468009342DEDB3B6B002B17D1BB691B7A03F051
:104478001003002B11D0BB69DB891A46BB6A02FB0B
:1044880003F35C1D02F00EFA03469C4294BF01231D
:104498000023DBB287F8373010E0BB69DB891A46A6
:1044A800BB6A02FB03F35C1C02F0FCF903469C4266
:1044B80094BF01230023DBB287F8373097F83730F1
:1044C800002B17D13A6B79690948FDF7ABFC7B687B
:1044D80002221A606FF00803BAE000BF90020020C1
:1044E80054EF00081000002084EF0008B4EF000823
:1044F800F0EF0008BB6919683A6B1346DB009B1A9A
:104508009B000B44BA6A9A603B6B01333B63BB69FF
:104518001B791A463B6B934204DA97F83730002B25
:104528007FF478AFBB69DB881846FFF74DFA03467E
:10453800FB74FB7C002B7DD0002387F82730FB69B8
:104548005B78022B53D0022B5FDC002B02D0012BAF
:1045580013D05AE079694048FDF764FCBB69012231
:104568005A71FFF7C7FA0346002B4BD00120FEF71C
:10457800F9FB4020FEF726FC44E079693748FDF74F
:1045880051FCBB695B69B3F1FF3F22D1BB69DA8893
:10459800334B1B889A420CD1314B5868304B996881
:1045A800BB6914331A4602F059FE034687F82730D0
:1045B8000FE07B69002B0CDCBB69DB88002B08D182
:1045C800B869FFF7E3FB034687F82730BB69002289
:1045D8001A8297F92730002B16D1BB6903225A712A
:1045E8000220FEF7BFFB4020FEF7D8FB0CE0FB697A
:1045F8005B889BB219461B48FDF714FCBB69022275
:104608005A7102E000BF00E000BFBB69DB881846B2
:10461800FFF700FA7B6802221A6097F92730002B0F
:1046280008D01148FDF7FEFB7B6802221A606FF084
:1046380002030DE0FB7C002B08D10C48FDF7F2FBD0
:104648007B6802221A606FF00A0301E097F92630AE
:1046580018463C37BD4690BD54F0000880F000086D
:1046680018000020ACF00008D8F0000824F1000879
:1046780080B586B000AF0346B9607A60FB7397F9DE
:104688000F30002B12D1BB687B617B69FF221A7047
:104698000C4B1A680C4B1B6819460B465B000B4405
:1046A800DB001344DA7A7B695A7006E097F90F3019
:1046B8007A68B9681846FEF7B7FB00BF1837BD46D9
:1046C80080BD00BF900200201000002090B58BB084
:1046D80000AFF860B9607A600023FB77FA68BB68BE
:1046E8001344BB61BB697B610023FB740023BB746B
:1046F80000237B627B695B781846FFF7C6FA03469E
:10470800FB74FB7C002B0BD17B695B781946A648B0
:10471800FDF788FB7B6802221A606FF0090362E1EB
:10472800A24B1B68002B05D0A04B9B88002B01D007
:10473800012300E00023FB74FB7C002B08D19C487C
:10474800FDF770FB7B6802221A606FF001034AE1F3
:1047580001F0A0FA0346BB74BB7C002B00F0358146
:10476800002387F8233000233B847B695B78022B86
:1047780000F0D580022B00F30681002B02D0012B1C
:104788002CD000E100237B621BE0884B19687A6A11
:1047980013465B001344DB000B445B79002B0DD000
:1047A800796A8448FDF73EFB804B19687A6A13469C
:1047B8005B001344DB000B4401225A717B6A01330E
:1047C8007B627A4B9B881A467B6A9342DDDB012029
:1047D800FEF7C8FA4020FEF7F5FAD4E000237B6222
:1047E80063E0724B19687A6A13465B001344DB0076
:1047F8000B445B79022B55D16C4B19687A6A1346C6
:104808005B001344DB000B445B69B3F1FF3F49D104
:10481800664B19687A6A13465B001344DB000B4445
:10482800DA88654B1B889A4214D1634B5868624BEF
:104838009C685E4B19687A6A13465B001344DB0078
:104848000B4414331A46214602F008FD034687F844
:10485800233027E07B6A002B24DC544B19687A6AE2
:1048680013465B001344DB000B44DB88002B19D193
:104878004E4B19687A6A13465B001344DB000B44FD
:104888001846FFF783FA034687F82330474B196821
:104898007A6A13465B001344DB000B4400221A8239
:1048A8007B6A3B847B6A01337B62404B9B881A4658
:1048B8007B6A934203DA97F92330002B91D097F95A
:1048C8002330002B5CD100237B6221E0374B196831
:1048D8007A6A13465B001344DB000B445B79022BB6
:1048E80013D1796A3548FDF79DFA304B19687A6A11
:1048F80013465B001344DB000B4403225A71022069
:10490800FEF730FA4020FEF749FA7B6A01337B62F2
:10491800264B9B881A467B6A9342D7DB30E00023FC
:104928007B621BE0214B19687A6A13465B001344CB
:10493800DB000B445B79022B0DD1796A1D48FDF72A
:1049480071FA1A4B19687A6A13465B001344DB0044
:104958000B4401225A717B6A01337B62134B9B889B
:104968001A467B6A9342DDDBFFF7C4F80346002B47
:1049780008D00120FEF7F6F94020FEF723FA01E0FF
:1049880000BF00E000BF01F094F997F92330002B35
:1049980018D03B8C19460A48FDF744FA7B68022276
:1049A8001A606FF002031EE06CF10008900200200C
:1049B8009CF10008C8F1000818000020F0F1000878
:1049C80018F200087B6801221A60BB7C002B08D112
:1049D8000748FDF727FA7B6802221A606FF00A037E
:1049E80001E097F91F3018462C37BD4690BD00BF2F
:1049F80064F2000880B584B000AFF860B9607A60EE
:104A08000548FDF70FFA7B6808221A60002318464C
:104A18001037BD4680BD00BFA8F2000880B586B03B
:104A280000AF0346B9607A60FB73BB687B610822FC
:104A38000021786909F084FB7B69FF221A707B6981
:104A480011225A707B694FF0FF329A704FF0FF3293
:104A5800DA707B69002262F07F021A7100225A71B3
:104A68007B6900229A717B690022DA717B695B7825
:104A780019461048FDF7D6F97B695B889BB2194641
:104A88000D48FDF7CFF97B699B889BB219460B4807
:104A9800FDF7C8F97B699B7919460948FDF7C2F902
:104AA8007B69DB7919460748FDF7BCF900BF183761
:104AB800BD4680BDC0F20008DCF20008F8F200082C
:104AC80014F3000830F3000880B584B000AFF86034
:104AD800B9607A600548FDF7A5F97B6808221A6075
:104AE800002318461037BD4680BD00BF4CF30008B0
:104AF80080B586B000AF0346B9607A60FB73BB68C7
:104B08007B6108220021786909F01AFB7B69FF2282
:104B18001A707B6901225A707B69FF229A707B693F
:104B28000122DA707B69FF221A717B6934225A717B
:104B38007B69002242F001029A710022DA717B69D6
:104B48005B7819461248FDF76DF97B699B78194621
:104B58001048FDF767F97B69DB7819460E48FDF7C1
:104B680061F97B691B7919460C48FDF75BF97B698C
:104B78005B7919460A48FDF755F97B69DB889BB2D2
:104B880019460848FDF74EF900BF1837BD4680BDE5
:104B980068F3000890F30008B8F30008E0F3000891
:104BA80008F4000834F4000880B586B000AFF86057
:104BB800B9607A600023FB750023BB750F48FDF7C9
:104BC80031F901F07DF80346BB75BB7D002B08D198
:104BD8000B48FDF727F97B6802221A606FF00A0379
:104BE80007E00120FEF7BEF87B6801221A6097F9FA
:104BF800173018461837BD4680BD00BF5CF4000862
:104C08008CF4000880B58CB000AFF860B9607A60A9
:104C1800002387F82B30FA68BB6813447B627B6AF1
:104C28003B623B6A5B889BB2FB610023BB6100234C
:104C3800FB750023FB62514B1B68002B0CBF012343
:104C48000023DBB2FB75FB7D002B08D14C48FDF738
:104C5800E9F87B6802221A606FF003038AE0FB69B7
:104C6800002B05DDFB69B3F5803F01DA012300E085
:104C78000023FB75FB7D002B09D1F9694148FDF73D
:104C8800D1F87B6802221A606FF0010372E0FA69BA
:104C980013465B001344DB001A46F9693A48FDF7EE
:104CA800C1F8FA6913465B001344DB00184601F0AB
:104CB800EBFFB861BB69002B09D1F9693348FDF7EF
:104CC800B1F87B6802221A606FF0020352E0FA69B9
:104CD80013465B001344DB001A460021B86909F04B
:104CE8002FFA264ABB691360FB699AB2234B9A8054
:104CF8000023FB6235E0FA6A13465B001344DB00CD
:104D08001A46BB6913444FF0FF325A61FA6A1346D8
:104D18005B001344DB001A46BB69134400221A7374
:104D2800FA6A13465B001344DB001A46BB69134456
:104D380001225A73FA6A13465B001344DB001A46D1
:104D4800BB6913440122DA81FA6A13465B001344F3
:104D5800DB001A46BB69134400221A82FB6A01333E
:104D6800FB62FA6AFB699A42C5DB7B6801221A601A
:104D780097F92B3018463037BD4680BD9002002089
:104D8800C8F400080CF500083CF5000868F50008B0
:104D980090B589B000AFF860B9607A600023FB77FE
:104DA800FA68BB681344BB61BB697B617B699A780D
:104DB800DB781B0213437B827B691B797B7400239E
:104DC8003B745C4B1B68002B14BF01230023DBB230
:104DD8003B743B7C002B08D15748FDF723F87B68D0
:104DE80002221A606FF003039FE0524B9B887A8A75
:104DF8009A4234BF01230023DBB23B743B7C002B77
:104E08000AD17B8A19464D48FDF70CF87B680222C7
:104E18001A606FF0010388E07B7C002B04D07B7C58
:104E2800FC2B01D8012300E000233B743B7C002BC2
:104E38000BD17B7C7A8A19464148FCF7F3FF7B68E3
:104E480002221A606FF001036FE03A4B19687A8A00
:104E580013465B001344DB000B441B68002B0CBF9C
:104E680001230023DBB23B743B7C002B08D135487F
:104E7800FCF7D8FF7B6802221A606FF0030354E046
:104E8800797C788A7A7C1346DB009B1A9B00024661
:104E98002D48FCF7C7FF7A7C1346DB009B1A9B0062
:104EA8001846244B19687A8A13465B001344DB00C2
:104EB800CC1801F0E9FE034623601E4B19687A8A74
:104EC80013465B001344DB000B441B68002B0BD11B
:104ED8007B7C7A8A19461D48FCF7A4FF7B6802226E
:104EE8001A606FF0020320E0124B19687A8A1346A1
:104EF8005B001344DB000B4418687A7C1346DB0024
:104F08009B1A9B001A46002109F01AF9094B1968E7
:104F18007A8A13465B001344DB000B447A7C1A71CF
:104F28007B6801221A6097F91F3018462437BD465E
:104F380090BD00BF90020020A0F50008E0F5000831
:104F48000CF6000848F6000884F60008BCF60008CD
:104F580090B58DB002AFF860B9607A60002387F829
:104F68002730FA68BB6813443B623B6AFB61FB6904
:104F78009A78DB781B0213437B83FB691B797B766A
:104F8800FB695B793B760023FB75844B1B68002B20
:104F980014BF01230023DBB2FB75FB7D002B08D176
:104FA8007F48FCF73FFF7B6802221A606FF003031B
:104FB800F0E07A4B9B887A8B9A4234BF0123002316
:104FC800DBB2FB75FB7D002B0AD17B8B194675483C
:104FD800FCF728FF7B6802221A606FF00103D9E012
:104FE8006E4B19687A8B13465B001344DB000B4445
:104FF8001B68002B14BF01230023DBB2FB75FB7D6C
:10500800002B08D16848FCF70DFF7B6802221A6064
:105018006FF00303BEE0614B19687A8B13465B009F
:105028001344DB000B441B797A7E9A4234BF012378
:105038000023DBB2FB75FB7D002B0AD17B7E194672
:105048005A48FCF7EFFE7B6802221A606FF00103F2
:10505800A0E0524B19687A8B13465B001344DB00BF
:105068000B4419687A7E1346DB009B1A9B000B449D
:105078001B68002B0CBF01230023DBB2FB75FB7DF3
:10508800002B08D14A48FCF7CDFE7B6802221A6043
:105098006FF003037EE03B7E002B14BF0123002347
:1050A800DBB2FB75FB7D002B0BD1397E7A7E7B8BC7
:1050B8004048FCF7B7FE7B6802221A606FF00103D4
:1050C80068E0397E7A8B787E3B7EDB00009303466E
:1050D8003948FCF7A7FE3B7ED800304B19687A8B1D
:1050E80013465B001344DB000B4419687A7E1346B1
:1050F800DB009B1A9B00CC1801F0C6FD0346236019
:10510800264B19687A8B13465B001344DB000B446B
:1051180019687A7E1346DB009B1A9B000B441B68B8
:10512800002B0BD1397E7A8B7B7E2448FCF77AFEE4
:105138007B6802221A606FF002032BE0174B196894
:105148007A8B13465B001344DB000B4419687A7EA4
:105158001346DB009B1A9B000B4418683B7EDB0060
:105168001A46002108F0ECFF0C4B19687A8B13469D
:105178005B001344DB000B4419687A7E1346DB009E
:105188009B1A9B000B443A7E1A717B6801221A60B5
:1051980097F9273018462C37BD4690BD900200205D
:1051A800FCF6000840F7000874F70008B4F7000898
:1051B800E0F700082CF800087CF80008C8F8000898
:1051C80080B584B000AFF860B9607A6002F0C6FFBD
:1051D8000346054A13607B6808221A6000231846B4
:1051E8001037BD4680BD00BFA002002080B586B044
:1051F80000AF0346B9607A60FB73BB687B61082225
:105208000021786908F09CFF7B69FF221A707B698E
:1052180000229A707B690122DA70044B1A687B6954
:105228005A6000BF1837BD4680BD00BFA0020020ED
:1052380080B58AB000AFF860B9607A60002387F85B
:105248002730FA68BB6813443B623B6AFB61FB6921
:105258009A78DB781B0213437B83FB691B797B7687
:10526800FB695B793B76FB699A79DB791B0213430F
:10527800FB8201237B756C4B1B68002B14BF012339
:105288000023DBB27B757B7D002B08D16748FCF7D8
:10529800C9FD7B6802221A606FF00303C0E0624B0D
:1052A8009B887A8B9A4234BF01230023DBB27B753B
:1052B8007B7D002B0AD17B8B19465D48FCF7B2FD3C
:1052C8007B6802221A606FF00103A9E07B8B002B38
:1052D8000CBF01230023DBB27B757B7D002B0AD139
:1052E8007B8B19465348FCF79DFD7B6802221A60A8
:1052F8006FF0090394E07B7E002B02D07B7E022BAB
:1053080001D1012300E000237B757B7D002B0AD1AE
:105318007B7E19464848FCF785FD7B6802221A60A7
:105328006FF009037CE03B7E012B0CBF01230023B7
:10533800DBB27B757B7D002B0AD13B7E19463F484B
:10534800FCF770FD7B6802221A606FF0090367E0C2
:105358007B7E002B02D1FB8A012B05D07B7E002BA4
:1053680004D0FB8A012B01D9012300E000237B75BF
:105378007B7D002B0AD1FB8A19463148FCF752FD88
:105388007B6802221A606FF0090349E07B8B18469C
:10539800FEF788FB0346002B0CBF01230023DBB27A
:1053A8007B757B7D002B08D12648FCF73BFD7B688D
:1053B80002221A606FF0070332E0797E3A7EFB8A98
:1053C8002148FCF72FFD184B19687A8B13465B00B0
:1053D8001344DB000B447A7E1A73134B19687A8BDB
:1053E80013465B001344DB000B443A7E5A730E4BA2
:1053F80019687A8B13465B001344DB000B44FA8A66
:10540800DA81094B19687A8B13465B001344DB0079
:105418000B4400221A827B6801221A6097F9273010
:1054280018462837BD4680BD9002002018F90008AC
:1054380060F9000898F90008FCF9000838FA000833
:105448007CFA0008C0FA00081CFB000880B588B088
:1054580000AFF860B9607A600023FB77FA68BB6830
:105468001344BB61BB695B78012B0CBF012300238C
:10547800DBB2FB75FB7D002B0BD1BB695B78194652
:105488000A48FCF7CFFC7B6802221A604FF0FF3312
:1054980008E07A68B968F868FFF7CAFE0346FB7740
:1054A80097F91F3018462037BD4680BD6CFB0008B1
:1054B80080B582B000AF0346FB71FB790D22044929
:1054C8001846FDF73FFD034618460837BD4680BD20
:1054D8003C0A010880B500AF084B00221A60084B4F
:1054E80000221A6008220021064808F029FE064812
:1054F80000F018F800F0C2FC00BF80BD9C0200203C
:105508009802002090020020B954000880B400AF2F
:10551800034B1B681846BD465DF8047B704700BF07
:10552800A402002080B483B000AF7860044A7B688E
:10553800136000BF0C37BD465DF8047B704700BFA1
:10554800A402002080B584B000AF0346FB8000238E
:10555800FB600023BB60224B1B68002B04D0204B50
:105568009B88FA889A4205D31E48FCF75BFC4FF0EB
:10557800FF3331E01A4B1968FA8813465B0013446D
:10558800DB000B44BB60FB881846FEF79FFB034615
:10559800002B03D0BB681B8A002B01D100231BE022
:1055A8000023FB600EE0BB681968FA681346DB004D
:1055B8009B1A9B000B44DB68184601F0D9FBFB687B
:1055C8000133FB60BB681B791A46FB689342EADB30
:1055D800BB6800221A82002318461037BD4680BDDA
:1055E80090020020A4FB000880B487B000AFF860E8
:1055F8000B467A60FB72FB681968FA7A1346DB007F
:105608009B1A9B000B443B613B695B697B613B696F
:1056180000229A61FB68DA7AFB7A1344DAB27B6972
:105628001A707B6901337B61FB7A002B11D1FB680F
:105638001B7A03F01003002B0BD07A687B691A6081
:105648003B699B6904337A6913447B613B69002297
:105658009A613B697A695A6100BF1C37BD465DF89B
:10566800047B704780B588B000AF78600023FB7773
:105678007B685B69BB610023FB7735E07B681A6850
:10568800FB7FDB0013447B617B695B683B617B6963
:105698001B78FF2B12D03B69FB60FB681B687A699B
:1056A8001278114601228A401340002B14BF0123AF
:1056B8000023DBB21A46BB691A7006E07B695B7887
:1056C8001A463969B86908F067FD7B695B781A463C
:1056D8007B689B691344BA691344BB617B680022E9
:1056E8009A61FB7F0133FB777B681B79FA7F9A42CB
:1056F800C4D37B68BA695A6100BF2037BD4680BDF4
:1057080080B58EB002AF0346B9607A60FB81002392
:1057180087F82F30002387F82E300023BB62002340
:1057280087F82D30002387F82730002387F82630A4
:10573800724B1B68002B04D0704B9B88FA899A42E5
:1057480005D36F48FCF76EFB4FF0FF33D1E06B4B8E
:105758001968FA8913465B001344DB000B44BB62EB
:10576800FB891846FEF7B2FA034687F8273097F800
:105778002730002B06D0BB6A1B8A0133BA6AD2894C
:10578800934201D1012300E0002387F8263000234B
:1057980087F82D3093E0BB6A196897F82D201346D7
:1057A800DB009B1A9B000B443B6201F033F8F86165
:1057B8000023BB6197F82730002B03D0BB6A1B8AF4
:1057C800002B01D1012300E00023FB75FB7D002B9A
:1057D8003CD097F82D301946B86AFEF7ADFA024664
:1057E8003B6A1A613B6A1B690121184601F022F8DD
:1057F800B861BB6A5B69B3F1FF3F09D0BB6A5B69FB
:10580800B969184601F0BAFD02463B6ADA6005E05C
:10581800B86901F039FA02463B6ADA603B6ADB682C
:10582800002B0DD03B6ADA68FB691A443B6A5A615F
:1058380097F82D30BA681946B86AFFF7D5FE05E023
:10584800012387F82E30F62387F82F3097F82E306B
:10585800002B2FD13B6ADB68002B2BD0BB6ADA8880
:10586800284B1B889A4202D0386AFFF7FBFE97F84C
:105878002630002B1ED03B6A1B690121184600F018
:10588800D9FFB8613B6ADA683B6A1B69F9890193F9
:10589800FB690093BB69786800F0CEFD034687F882
:1058A8002F3097F92F30002B04D03B6ADB6818465D
:1058B80001F05EFA97F82D30013387F82D30BB6A76
:1058C8001B7997F82D209A4204D297F82E30002B96
:1058D8003FF461AFBB6A1B8A0133BA6AD28993FB72
:1058E800F2F101FB02F29B1A9AB2BB6A1A8297F98B
:1058F8002F3018463037BD4680BD00BF90020020CB
:10590800A4FB00081800002080B586B000AF03464D
:105918003960FB8013467B710023FB75FB881846B2
:10592800FEF788F8394B1B68002B64D0374B9B88EF
:10593800002B60D00023BB82344B1B683B610023E3
:10594800BB824FE0BA8A13465B001344DB001A4659
:105958003B6913441B7A03F00203002B3FD1BA8A38
:1059680013465B001344DB001A463B6913445B791A
:10597800032B34D1BA8A13465B001344DB001A4662
:105988003B691344DB88FA889A4228D1BB8A1946B6
:10599800002000F037FD0346FB73FB7B002B01D092
:1059A800002301E04FF0FF33BB607B79002B06D06A
:1059B800BB8A1846FFF7C6FD0346FB7507E0BB8A9E
:1059C800BA6839681846FFF79BFE0346FB75FB7BF0
:1059D800002B04D0BB8A1946002000F020FDBB8AAA
:1059E8000133BB82094B9B88BA8A9A4203D297F942
:1059F8001730002BA6D0FB881846FEF737F897F922
:105A0800173018461837BD4680BD00BF90020020E9
:105A180080B58EB002AF7860002387F82F309C4B9A
:105A28001B68002B00F02E8100F034F9034687F83C
:105A3800293097F82930002B00F02181944B1B68FE
:105A48007B62934B9B883B620023BB850023BB850D
:105A58000DE1BB8D1846FEF739F90346FB77FB7F4E
:105A6800002B00F00181BA8D13465B001344DB0064
:105A78001A467B6A13445B79032B40F0F580BA8D94
:105A880013465B001344DB001A467B6A13441B8AE7
:105A9800002B00F0E980BB8D1946002000F0B2FC15
:105AA8000346BB77BB7F002B01D0002301E04FF0FA
:105AB800FF33BB6100237B8500237B85BCE0BA8D67
:105AC80013465B001344DB001A467B6A13441968CB
